{
  "contractName": "Pomcoin",
  "abi": [
    {
      "inputs": [
        {
          "internalType": "uint256",
          "name": "initialSupply",
          "type": "uint256"
        }
      ],
      "stateMutability": "nonpayable",
      "type": "constructor"
    },
    {
      "anonymous": false,
      "inputs": [
        {
          "indexed": true,
          "internalType": "address",
          "name": "owner",
          "type": "address"
        },
        {
          "indexed": true,
          "internalType": "address",
          "name": "spender",
          "type": "address"
        },
        {
          "indexed": false,
          "internalType": "uint256",
          "name": "value",
          "type": "uint256"
        }
      ],
      "name": "Approval",
      "type": "event"
    },
    {
      "anonymous": false,
      "inputs": [
        {
          "indexed": true,
          "internalType": "address",
          "name": "previousOwner",
          "type": "address"
        },
        {
          "indexed": true,
          "internalType": "address",
          "name": "newOwner",
          "type": "address"
        }
      ],
      "name": "OwnershipTransferred",
      "type": "event"
    },
    {
      "anonymous": false,
      "inputs": [
        {
          "indexed": false,
          "internalType": "uint256",
          "name": "tokensIntoLiqudity",
          "type": "uint256"
        },
        {
          "indexed": false,
          "internalType": "uint256",
          "name": "ethIntoLiquidity",
          "type": "uint256"
        }
      ],
      "name": "SwapAndLiquify",
      "type": "event"
    },
    {
      "anonymous": false,
      "inputs": [
        {
          "indexed": true,
          "internalType": "address",
          "name": "from",
          "type": "address"
        },
        {
          "indexed": true,
          "internalType": "address",
          "name": "to",
          "type": "address"
        },
        {
          "indexed": false,
          "internalType": "uint256",
          "name": "value",
          "type": "uint256"
        }
      ],
      "name": "Transfer",
      "type": "event"
    },
    {
      "inputs": [
        {
          "internalType": "address",
          "name": "owner",
          "type": "address"
        },
        {
          "internalType": "address",
          "name": "spender",
          "type": "address"
        }
      ],
      "name": "allowance",
      "outputs": [
        {
          "internalType": "uint256",
          "name": "",
          "type": "uint256"
        }
      ],
      "stateMutability": "view",
      "type": "function"
    },
    {
      "inputs": [
        {
          "internalType": "address",
          "name": "spender",
          "type": "address"
        },
        {
          "internalType": "uint256",
          "name": "amount",
          "type": "uint256"
        }
      ],
      "name": "approve",
      "outputs": [
        {
          "internalType": "bool",
          "name": "",
          "type": "bool"
        }
      ],
      "stateMutability": "nonpayable",
      "type": "function"
    },
    {
      "inputs": [
        {
          "internalType": "address",
          "name": "account",
          "type": "address"
        }
      ],
      "name": "balanceOf",
      "outputs": [
        {
          "internalType": "uint256",
          "name": "",
          "type": "uint256"
        }
      ],
      "stateMutability": "view",
      "type": "function"
    },
    {
      "inputs": [],
      "name": "decimals",
      "outputs": [
        {
          "internalType": "uint8",
          "name": "",
          "type": "uint8"
        }
      ],
      "stateMutability": "view",
      "type": "function"
    },
    {
      "inputs": [
        {
          "internalType": "address",
          "name": "spender",
          "type": "address"
        },
        {
          "internalType": "uint256",
          "name": "subtractedValue",
          "type": "uint256"
        }
      ],
      "name": "decreaseAllowance",
      "outputs": [
        {
          "internalType": "bool",
          "name": "",
          "type": "bool"
        }
      ],
      "stateMutability": "nonpayable",
      "type": "function"
    },
    {
      "inputs": [],
      "name": "getOwner",
      "outputs": [
        {
          "internalType": "address",
          "name": "",
          "type": "address"
        }
      ],
      "stateMutability": "view",
      "type": "function"
    },
    {
      "inputs": [
        {
          "internalType": "address",
          "name": "spender",
          "type": "address"
        },
        {
          "internalType": "uint256",
          "name": "addedValue",
          "type": "uint256"
        }
      ],
      "name": "increaseAllowance",
      "outputs": [
        {
          "internalType": "bool",
          "name": "",
          "type": "bool"
        }
      ],
      "stateMutability": "nonpayable",
      "type": "function"
    },
    {
      "inputs": [
        {
          "internalType": "uint256",
          "name": "amount",
          "type": "uint256"
        }
      ],
      "name": "mint",
      "outputs": [
        {
          "internalType": "bool",
          "name": "",
          "type": "bool"
        }
      ],
      "stateMutability": "nonpayable",
      "type": "function"
    },
    {
      "inputs": [],
      "name": "name",
      "outputs": [
        {
          "internalType": "string",
          "name": "",
          "type": "string"
        }
      ],
      "stateMutability": "view",
      "type": "function"
    },
    {
      "inputs": [],
      "name": "owner",
      "outputs": [
        {
          "internalType": "address",
          "name": "",
          "type": "address"
        }
      ],
      "stateMutability": "view",
      "type": "function"
    },
    {
      "inputs": [],
      "name": "pancakeFactoryV2",
      "outputs": [
        {
          "internalType": "contract IPancakeFactory",
          "name": "",
          "type": "address"
        }
      ],
      "stateMutability": "view",
      "type": "function"
    },
    {
      "inputs": [],
      "name": "pancakeRouterV2",
      "outputs": [
        {
          "internalType": "contract IPancakeRouter02",
          "name": "",
          "type": "address"
        }
      ],
      "stateMutability": "view",
      "type": "function"
    },
    {
      "inputs": [],
      "name": "renounceOwnership",
      "outputs": [],
      "stateMutability": "nonpayable",
      "type": "function"
    },
    {
      "inputs": [],
      "name": "symbol",
      "outputs": [
        {
          "internalType": "string",
          "name": "",
          "type": "string"
        }
      ],
      "stateMutability": "view",
      "type": "function"
    },
    {
      "inputs": [],
      "name": "totalSupply",
      "outputs": [
        {
          "internalType": "uint256",
          "name": "",
          "type": "uint256"
        }
      ],
      "stateMutability": "view",
      "type": "function"
    },
    {
      "inputs": [
        {
          "internalType": "address",
          "name": "recipient",
          "type": "address"
        },
        {
          "internalType": "uint256",
          "name": "amount",
          "type": "uint256"
        }
      ],
      "name": "transfer",
      "outputs": [
        {
          "internalType": "bool",
          "name": "",
          "type": "bool"
        }
      ],
      "stateMutability": "nonpayable",
      "type": "function"
    },
    {
      "inputs": [
        {
          "internalType": "address",
          "name": "sender",
          "type": "address"
        },
        {
          "internalType": "address",
          "name": "recipient",
          "type": "address"
        },
        {
          "internalType": "uint256",
          "name": "amount",
          "type": "uint256"
        }
      ],
      "name": "transferFrom",
      "outputs": [
        {
          "internalType": "bool",
          "name": "",
          "type": "bool"
        }
      ],
      "stateMutability": "nonpayable",
      "type": "function"
    },
    {
      "inputs": [
        {
          "internalType": "address",
          "name": "newOwner",
          "type": "address"
        }
      ],
      "name": "transferOwnership",
      "outputs": [],
      "stateMutability": "nonpayable",
      "type": "function"
    },
    {
      "stateMutability": "payable",
      "type": "receive"
    }
  ],
  "bytecode": "0x6080604052600880546001600160a01b031990811673ca143ce32fe78f1f7019d7d551a6402fc5350c7317909155600980549091167310ed43c718714eb63d5aa57b78b54704e256024e1790553480156200005957600080fd5b5060405162001c4e38038062001c4e833981810160405260208110156200007f57600080fd5b505160408051808201825260078152662837b6b1b7b4b760c91b60208281019190915282518084019093526003835262504f4d60e81b90830152906000620000c662000477565b600080546001600160a01b0319166001600160a01b0383169081178255604051929350917f8be0079c531659141344cd1fd0a4f28419497f9722a3daafe3b4186f6b6457e0908290a35081516200012590600490602085019062000777565b5080516200013b90600590602084019062000777565b505060068054600854601260ff1990921691909117610100600160a81b0319166101006001600160a01b03928316021790915560095460078054919092166001600160a01b031990911617905550620001bd30620001b76200019c6200047b565b60ff16600a0a846200048460201b62000a1c1790919060201c565b620004eb565b600754604080516315ab88c960e31b815290516000926001600160a01b03169163ad5c4648916004808301926020929190829003018186803b1580156200020357600080fd5b505afa15801562000218573d6000803e3d6000fd5b505050506040513d60208110156200022f57600080fd5b505160408051630d0e30db60e41b81529051919250670de0b6b3a7640000916001600160a01b0384169163d0e30db091849160048082019260009290919082900301818588803b1580156200028357600080fd5b505af115801562000298573d6000803e3d6000fd5b50506040805163a9059cbb60e01b81523060048201526024810186905290516001600160a01b038716945063a9059cbb9350604480830193506020928290030181600087803b158015620002eb57600080fd5b505af115801562000300573d6000803e3d6000fd5b505050506040513d60208110156200031757600080fd5b5050600654604080516364e329cb60e11b81523060048201526001600160a01b03858116602483015291516101009093049091169163c9c65396916044808201926020929091908290030181600087803b1580156200037557600080fd5b505af11580156200038a573d6000803e3d6000fd5b505050506040513d6020811015620003a157600080fd5b5060009050620003b130620005f0565b600954909150620003cc906001600160a01b0316826200060b565b506007546040805163f305d71960e01b8152306004820181905260248201859052604482018590526064820186905260848201524260a482015290516001600160a01b039092169163f305d71991859160c480830192606092919082900301818588803b1580156200043d57600080fd5b505af115801562000452573d6000803e3d6000fd5b50505050506040513d60608110156200046a57600080fd5b5062000813945050505050565b3390565b60065460ff1690565b6000826200049557506000620004e5565b82820282848281620004a357fe5b0414620004e25760405162461bcd60e51b815260040180806020018281038252602181526020018062001c0b6021913960400191505060405180910390fd5b90505b92915050565b6001600160a01b03821662000547576040805162461bcd60e51b815260206004820152601f60248201527f42455032303a206d696e7420746f20746865207a65726f206164647265737300604482015290519081900360640190fd5b62000563816003546200062c60201b62000a7c1790919060201c565b6003556001600160a01b0382166000908152600160209081526040909120546200059891839062000a7c6200062c821b17901c565b6001600160a01b03831660008181526001602090815260408083209490945583518581529351929391927fddf252ad1be2c89b69c2b068fc378daa952ba7f163c4a11628f55a4df523b3ef9281900390910190a35050565b6001600160a01b031660009081526001602052604090205490565b6000620006236200061b62000477565b848462000687565b50600192915050565b600082820183811015620004e2576040805162461bcd60e51b815260206004820152601b60248201527f536166654d6174683a206164646974696f6e206f766572666c6f770000000000604482015290519081900360640190fd5b6001600160a01b038316620006ce5760405162461bcd60e51b815260040180806020018281038252602481526020018062001be76024913960400191505060405180910390fd5b6001600160a01b038216620007155760405162461bcd60e51b815260040180806020018281038252602281526020018062001c2c6022913960400191505060405180910390fd5b6001600160a01b03808416600081815260026020908152604080832094871680845294825291829020859055815185815291517f8c5be1e5ebec7d5bd14f71427d1e84f3dd0314c0f7b2291e5b200ac8c7c3b9259281900390910190a3505050565b828054600181600116156101000203166002900490600052602060002090601f016020900481019282601f10620007ba57805160ff1916838001178555620007ea565b82800160010185558215620007ea579182015b82811115620007ea578251825591602001919060010190620007cd565b50620007f8929150620007fc565b5090565b5b80821115620007f85760008155600101620007fd565b6113c480620008236000396000f3fe60806040526004361061010d5760003560e01c80638da5cb5b11610095578063a9059cbb11610064578063a9059cbb146103d2578063d20ccdc21461040b578063dd62ed3e14610420578063f19a41671461045b578063f2fde38b1461047057610122565b80638da5cb5b1461034557806395d89b411461035a578063a0712d681461036f578063a457c2d71461039957610122565b8063313ce567116100dc578063313ce56714610268578063395093511461029357806370a08231146102cc578063715018a6146102ff578063893d20e81461031457610122565b806306fdde0314610127578063095ea7b3146101b157806318160ddd146101fe57806323b872dd1461022557610122565b36610122574715610120576101206104a3565b005b600080fd5b34801561013357600080fd5b5061013c610571565b6040805160208082528351818301528351919283929083019185019080838360005b8381101561017657818101518382015260200161015e565b50505050905090810190601f1680156101a35780820380516001836020036101000a031916815260200191505b509250505060405180910390f35b3480156101bd57600080fd5b506101ea600480360360408110156101d457600080fd5b506001600160a01b038135169060200135610607565b604080519115158252519081900360200190f35b34801561020a57600080fd5b50610213610625565b60408051918252519081900360200190f35b34801561023157600080fd5b506101ea6004803603606081101561024857600080fd5b506001600160a01b0381358116916020810135909116906040013561062b565b34801561027457600080fd5b5061027d6106b2565b6040805160ff9092168252519081900360200190f35b34801561029f57600080fd5b506101ea600480360360408110156102b657600080fd5b506001600160a01b0381351690602001356106bb565b3480156102d857600080fd5b50610213600480360360208110156102ef57600080fd5b50356001600160a01b0316610709565b34801561030b57600080fd5b50610120610724565b34801561032057600080fd5b506103296107d8565b604080516001600160a01b039092168252519081900360200190f35b34801561035157600080fd5b506103296107e7565b34801561036657600080fd5b5061013c6107f6565b34801561037b57600080fd5b506101ea6004803603602081101561039257600080fd5b5035610857565b3480156103a557600080fd5b506101ea600480360360408110156103bc57600080fd5b506001600160a01b0381351690602001356108dc565b3480156103de57600080fd5b506101ea600480360360408110156103f557600080fd5b506001600160a01b038135169060200135610944565b34801561041757600080fd5b50610329610958565b34801561042c57600080fd5b506102136004803603604081101561044357600080fd5b506001600160a01b0381358116916020013516610967565b34801561046757600080fd5b50610329610992565b34801561047c57600080fd5b506101206004803603602081101561049357600080fd5b50356001600160a01b03166109a6565b4760006104b1826002610ad6565b90506104bc81610b18565b604080516370a0823160e01b815230600482018190529151479260009290916370a0823191602480820192602092909190829003018186803b15801561050157600080fd5b505afa158015610515573d6000803e3d6000fd5b505050506040513d602081101561052b57600080fd5b5051604080518281526020810185905281519293507f28fc98272ce761178794ad6768050fea1648e07f1e2ffe15afd3a290f8381486929081900390910190a150505050565b60048054604080516020601f60026000196101006001881615020190951694909404938401819004810282018101909252828152606093909290918301828280156105fd5780601f106105d2576101008083540402835291602001916105fd565b820191906000526020600020905b8154815290600101906020018083116105e057829003601f168201915b5050505050905090565b600061061b610614610d82565b8484610d86565b5060015b92915050565b60035490565b6000610638848484610e72565b6106a884610644610d82565b6106a3856040518060600160405280602881526020016112b6602891396001600160a01b038a16600090815260026020526040812090610682610d82565b6001600160a01b031681526020810191909152604001600020549190610fc4565b610d86565b5060019392505050565b60065460ff1690565b600061061b6106c8610d82565b846106a385600260006106d9610d82565b6001600160a01b03908116825260208083019390935260409182016000908120918c168152925290205490610a7c565b6001600160a01b031660009081526001602052604090205490565b61072c610d82565b6000546001600160a01b0390811691161461078e576040805162461bcd60e51b815260206004820181905260248201527f4f776e61626c653a2063616c6c6572206973206e6f7420746865206f776e6572604482015290519081900360640190fd5b600080546040516001600160a01b03909116907f8be0079c531659141344cd1fd0a4f28419497f9722a3daafe3b4186f6b6457e0908390a3600080546001600160a01b0319169055565b60006107e26107e7565b905090565b6000546001600160a01b031690565b60058054604080516020601f60026000196101006001881615020190951694909404938401819004810282018101909252828152606093909290918301828280156105fd5780601f106105d2576101008083540402835291602001916105fd565b6000610861610d82565b6000546001600160a01b039081169116146108c3576040805162461bcd60e51b815260206004820181905260248201527f4f776e61626c653a2063616c6c6572206973206e6f7420746865206f776e6572604482015290519081900360640190fd5b6108d46108ce610d82565b8361105b565b506001919050565b600061061b6108e9610d82565b846106a3856040518060600160405280602581526020016113486025913960026000610913610d82565b6001600160a01b03908116825260208083019390935260409182016000908120918d16815292529020549190610fc4565b600061061b610951610d82565b8484610e72565b6007546001600160a01b031681565b6001600160a01b03918216600090815260026020908152604080832093909416825291909152205490565b60065461010090046001600160a01b031681565b6109ae610d82565b6000546001600160a01b03908116911614610a10576040805162461bcd60e51b815260206004820181905260248201527f4f776e61626c653a2063616c6c6572206973206e6f7420746865206f776e6572604482015290519081900360640190fd5b610a1981611141565b50565b600082610a2b5750600061061f565b82820282848281610a3857fe5b0414610a755760405162461bcd60e51b81526004018080602001828103825260218152602001806112de6021913960400191505060405180910390fd5b9392505050565b600082820183811015610a75576040805162461bcd60e51b815260206004820152601b60248201527f536166654d6174683a206164646974696f6e206f766572666c6f770000000000604482015290519081900360640190fd5b6000610a7583836040518060400160405280601a81526020017f536166654d6174683a206469766973696f6e206279207a65726f0000000000008152506111e1565b60408051600280825260608083018452926020830190803683375050600754604080516315ab88c960e31b815290519394506001600160a01b039091169263ad5c464892506004808301926020929190829003018186803b158015610b7c57600080fd5b505afa158015610b90573d6000803e3d6000fd5b505050506040513d6020811015610ba657600080fd5b505181518290600090610bb557fe5b60200260200101906001600160a01b031690816001600160a01b0316815250503081600181518110610be357fe5b6001600160a01b039283166020918202929092010152600754610c099130911684610d86565b600754604051637ff36ab560e01b81526000600482018181523060448401819052600f4201606485018190526080602486019081528751608487015287516001600160a01b0390971696637ff36ab5968a96958a9594939092909160a40190602080880191028083838b5b83811015610c8c578181015183820152602001610c74565b50505050905001955050505050506000604051808303818588803b158015610cb357600080fd5b505af1158015610cc7573d6000803e3d6000fd5b50505050506040513d6000823e601f3d908101601f191682016040526020811015610cf157600080fd5b8101908080516040519392919084640100000000821115610d1157600080fd5b908301906020820185811115610d2657600080fd5b8251866020820283011164010000000082111715610d4357600080fd5b82525081516020918201928201910280838360005b83811015610d70578181015183820152602001610d58565b50505050905001604052505050505050565b3390565b6001600160a01b038316610dcb5760405162461bcd60e51b815260040180806020018281038252602481526020018061126c6024913960400191505060405180910390fd5b6001600160a01b038216610e105760405162461bcd60e51b815260040180806020018281038252602281526020018061136d6022913960400191505060405180910390fd5b6001600160a01b03808416600081815260026020908152604080832094871680845294825291829020859055815185815291517f8c5be1e5ebec7d5bd14f71427d1e84f3dd0314c0f7b2291e5b200ac8c7c3b9259281900390910190a3505050565b6001600160a01b038316610eb75760405162461bcd60e51b81526004018080602001828103825260258152602001806112476025913960400191505060405180910390fd5b6001600160a01b038216610efc5760405162461bcd60e51b81526004018080602001828103825260238152602001806113256023913960400191505060405180910390fd5b610f39816040518060600160405280602681526020016112ff602691396001600160a01b0386166000908152600160205260409020549190610fc4565b6001600160a01b038085166000908152600160205260408082209390935590841681522054610f689082610a7c565b6001600160a01b0380841660008181526001602090815260409182902094909455805185815290519193928716927fddf252ad1be2c89b69c2b068fc378daa952ba7f163c4a11628f55a4df523b3ef92918290030190a3505050565b600081848411156110535760405162461bcd60e51b81526004018080602001828103825283818151815260200191508051906020019080838360005b83811015611018578181015183820152602001611000565b50505050905090810190601f1680156110455780820380516001836020036101000a031916815260200191505b509250505060405180910390fd5b505050900390565b6001600160a01b0382166110b6576040805162461bcd60e51b815260206004820152601f60248201527f42455032303a206d696e7420746f20746865207a65726f206164647265737300604482015290519081900360640190fd5b6003546110c39082610a7c565b6003556001600160a01b0382166000908152600160205260409020546110e99082610a7c565b6001600160a01b03831660008181526001602090815260408083209490945583518581529351929391927fddf252ad1be2c89b69c2b068fc378daa952ba7f163c4a11628f55a4df523b3ef9281900390910190a35050565b6001600160a01b0381166111865760405162461bcd60e51b81526004018080602001828103825260268152602001806112906026913960400191505060405180910390fd5b600080546040516001600160a01b03808516939216917f8be0079c531659141344cd1fd0a4f28419497f9722a3daafe3b4186f6b6457e091a3600080546001600160a01b0319166001600160a01b0392909216919091179055565b600081836112305760405162461bcd60e51b8152602060048201818152835160248401528351909283926044909101919085019080838360008315611018578181015183820152602001611000565b50600083858161123c57fe5b049594505050505056fe42455032303a207472616e736665722066726f6d20746865207a65726f206164647265737342455032303a20617070726f76652066726f6d20746865207a65726f20616464726573734f776e61626c653a206e6577206f776e657220697320746865207a65726f206164647265737342455032303a207472616e7366657220616d6f756e74206578636565647320616c6c6f77616e6365536166654d6174683a206d756c7469706c69636174696f6e206f766572666c6f7742455032303a207472616e7366657220616d6f756e7420657863656564732062616c616e636542455032303a207472616e7366657220746f20746865207a65726f206164647265737342455032303a2064656372656173656420616c6c6f77616e63652062656c6f77207a65726f42455032303a20617070726f766520746f20746865207a65726f2061646472657373a2646970667358221220a5d30764f4c9d7bc122387221cca1251bc98397983cbb906994d9bd3b3a8dc8964736f6c634300060c003342455032303a20617070726f76652066726f6d20746865207a65726f2061646472657373536166654d6174683a206d756c7469706c69636174696f6e206f766572666c6f7742455032303a20617070726f766520746f20746865207a65726f2061646472657373",
  "immutableReferences": {},
  "source": "// SPDX-License-Identifier: MIT\npragma solidity 0.6.12;\n\nimport \"@pancakeswap/pancake-swap-lib/contracts/token/BEP20/BEP20.sol\";\nimport \"@pancakeswap-libs/pancake-swap-core/contracts/interfaces/IPancakeFactory.sol\";\nimport \"pancakeswap-peripheral/contracts/interfaces/IPancakeRouter02.sol\";\nimport \"pancakeswap-peripheral/contracts/interfaces/IWETH.sol\";\n\ncontract Pomcoin is BEP20 {\n  IPancakeFactory public pancakeFactoryV2;\n  IPancakeRouter02 public pancakeRouterV2;\n\n  address pancakeFactoryV2Addr = 0xcA143Ce32Fe78f1f7019d7d551a6402fC5350c73;\n  address pancakeRouterV2Addr = 0x10ED43C718714eb63d5aA57B78B54704E256024E;\n\n  event SwapAndLiquify(uint tokensIntoLiqudity, uint ethIntoLiquidity);\n\n  constructor(uint initialSupply) BEP20(\"Pomcoin\", \"POM\") public {\n    pancakeFactoryV2 = IPancakeFactory(pancakeFactoryV2Addr);\n    pancakeRouterV2 = IPancakeRouter02(pancakeRouterV2Addr);\n\n    // Mint initial supply to the contract\n    _mint(address(this), initialSupply.mul(10 ** uint(decimals())));\n\n    // Fund the contract with ETH from the creator\n    address weth = pancakeRouterV2.WETH();\n    uint ethForLiquidityPool = 1 ether;\n    IWETH(weth).deposit{value: ethForLiquidityPool}();\n    IWETH(weth).transfer(address(this), ethForLiquidityPool);\n\n    // Create liquidity pool pair and permanently stake initial liquidity\n    pancakeFactoryV2.createPair(address(this), weth);\n    uint pomForLiquidityPool = balanceOf(address(this));\n    approve(pancakeRouterV2Addr, pomForLiquidityPool);\n    pancakeRouterV2.addLiquidityETH{value: ethForLiquidityPool}(\n      address(this),\n      pomForLiquidityPool,\n      pomForLiquidityPool,\n      ethForLiquidityPool,\n      address(this),  // Pomcoin owns the LP token, not the creator\n      block.timestamp\n    );\n\n    /* TODO: Burn the LP token (0x000000000000000000000000000000000000dEaD) */\n\n  }\n\n  receive() external payable {\n    // Transfer excess balance to permanent liquidity pool\n    if(address(this).balance > 0) {\n      swapAndLiquifyBalance();\n    }\n  }\n\n  function swapAndLiquifyBalance() private {\n    // capture the contract's current balance.\n    uint initialEthBalance = address(this).balance;\n    uint half = initialEthBalance.div(2);\n\n    // swap ETH for tokens\n    swapEthForTokens(half);\n\n    // new balances\n    uint newEthBalance = address(this).balance;\n    uint newTokenBalance = this.balanceOf(address(this));\n\n    /* addLiquidity(newTokenBalance, newEthBalance); */\n\n    emit SwapAndLiquify(newTokenBalance, newEthBalance);\n  }\n\n  function swapEthForTokens(uint ethAmount) private {\n    address[] memory path = new address[](2);\n    path[0] = pancakeRouterV2.WETH();\n    path[1] = address(this);\n\n    _approve(address(this), address(pancakeRouterV2), ethAmount);\n\n    // make the swap\n    pancakeRouterV2.swapExactETHForTokens{value: ethAmount}(\n      0,   // accept any amount of tokens\n      path,\n      address(this),\n      block.timestamp + 15 // NOTE: For testing purposes\n      // block.timestamp\n    );\n  }\n\n  function swapTokensForEth(uint tokenAmount) private {\n    // generate the uniswap pair path of token -> weth\n    address[] memory path = new address[](2);\n    path[0] = address(this);\n    path[1] = pancakeRouterV2.WETH();\n\n    _approve(address(this), address(pancakeRouterV2), tokenAmount);\n\n    // make the swap\n    pancakeRouterV2.swapExactTokensForETH(\n      tokenAmount,\n      0, // accept any amount of ETH\n      path,\n      address(this),\n      block.timestamp\n    );\n  }\n\n  function addLiquidity(uint tokenAmount, uint ethAmount) private {\n    // approve token transfer to cover all possible scenarios\n    _approve(address(this), address(pancakeRouterV2), tokenAmount);\n\n    // add the liquidity\n    pancakeRouterV2.addLiquidityETH{value: ethAmount}(\n      address(this),\n      tokenAmount,\n      0, // slippage is unavoidable\n      0, // slippage is unavoidable\n      address(this),\n      block.timestamp\n    );\n\n    // TODO: Burn the LP token (0x000000000000000000000000000000000000dEaD)\n  }\n\n}\n",
  "sourcePath": "/home/grant/Development/solidity_fun/pomcoin/contracts/Pomcoin.sol",
  "compiler": {
    "name": "solc",
    "version": "0.6.12+commit.27d51765.Emscripten.clang"
  },
  "schemaVersion": "3.4.1",
  "updatedAt": "2021-05-28T07:38:48.137Z",
  "devdoc": {
    "kind": "dev",
    "methods": {
      "allowance(address,address)": {
        "details": "See {BEP20-allowance}."
      },
      "approve(address,uint256)": {
        "details": "See {BEP20-approve}. Requirements: - `spender` cannot be the zero address."
      },
      "balanceOf(address)": {
        "details": "See {BEP20-balanceOf}."
      },
      "decimals()": {
        "details": "Returns the token decimals."
      },
      "decreaseAllowance(address,uint256)": {
        "details": "Atomically decreases the allowance granted to `spender` by the caller. This is an alternative to {approve} that can be used as a mitigation for problems described in {BEP20-approve}. Emits an {Approval} event indicating the updated allowance. Requirements: - `spender` cannot be the zero address. - `spender` must have allowance for the caller of at least `subtractedValue`."
      },
      "getOwner()": {
        "details": "Returns the bep token owner."
      },
      "increaseAllowance(address,uint256)": {
        "details": "Atomically increases the allowance granted to `spender` by the caller. This is an alternative to {approve} that can be used as a mitigation for problems described in {BEP20-approve}. Emits an {Approval} event indicating the updated allowance. Requirements: - `spender` cannot be the zero address."
      },
      "mint(uint256)": {
        "details": "Creates `amount` tokens and assigns them to `msg.sender`, increasing the total supply. Requirements - `msg.sender` must be the token owner"
      },
      "name()": {
        "details": "Returns the token name."
      },
      "owner()": {
        "details": "Returns the address of the current owner."
      },
      "renounceOwnership()": {
        "details": "Leaves the contract without owner. It will not be possible to call `onlyOwner` functions anymore. Can only be called by the current owner. NOTE: Renouncing ownership will leave the contract without an owner, thereby removing any functionality that is only available to the owner."
      },
      "symbol()": {
        "details": "Returns the token symbol."
      },
      "totalSupply()": {
        "details": "See {BEP20-totalSupply}."
      },
      "transfer(address,uint256)": {
        "details": "See {BEP20-transfer}. Requirements: - `recipient` cannot be the zero address. - the caller must have a balance of at least `amount`."
      },
      "transferFrom(address,address,uint256)": {
        "details": "See {BEP20-transferFrom}. Emits an {Approval} event indicating the updated allowance. This is not required by the EIP. See the note at the beginning of {BEP20}; Requirements: - `sender` and `recipient` cannot be the zero address. - `sender` must have a balance of at least `amount`. - the caller must have allowance for `sender`'s tokens of at least `amount`."
      },
      "transferOwnership(address)": {
        "details": "Transfers ownership of the contract to a new account (`newOwner`). Can only be called by the current owner."
      }
    },
    "version": 1
  },
  "userdoc": {
    "kind": "user",
    "methods": {},
    "version": 1
  }
}